:020000040800F2
:10000000005000206D0E0008190E0008210E000897
:10001000290E0008310E0008390E0008000000000B
:100020000000000000000000000000002147000860
:10003000410E00080000000061490008A9490008BD
:10004000B50E0008B50E0008B50E0008B50E000884
:10005000B50E0008B50E0008B50E0008B50E000874
:10006000B50E0008B50E0008B50E0008B50E000864
:10007000B50E0008B50E0008B50E0008B50E000854
:10008000B50E0008B50E0008B50E0008B50E000844
:10009000B50E0008B50E0008B50E0008FD060008F4
:1000A000B50E00084D0E0008B50E0008B50E00088C
:1000B000B50E0008B50E0008B50E0008B50E000814
:1000C000B50E0008B50E0008B50E0008B50E000804
:1000D000B50E0008B50E0008B50E0008B50E0008F4
:1000E000B50E0008B50E0008B50E000800000000AF
:1000F0000000000000000000000000000000000000
:0C01000000000000000000005FF808F1A3
:1001100010B5054C237833B9044B13B10448AFF341
:1001200000800123237010BD8C000020000000001F
:10013000DC50000808B5034B1BB103490348AFF37B
:10014000008008BD0000000090000020DC50000886
:1001500080B582B002AF00F0AFFE00F04DF800F0C5
:1001600043F900F017F900F083F800F0AFF8164BF0
:10017000019303230093002364221449144803F0DD
:10018000CEFB144B0193022300930023C822124993
:10019000124803F0C4FB124B019302230093002387
:1001A00032221049104803F0BAFB104B019304238C
:1001B0000093002332220E490E4803F0B0FB03F0F7
:1001C00049FD00BFFDE700BF90010020F45000088A
:1001D0001D05000894010020FC5000088D05000852
:1001E0009801002000510008490600089C010020E9
:1001F0000C5100087D06000880B590B000AF07F1F3
:10020000180328220021184604F088FE3B1D002216
:100210001A605A609A60DA601A610223BB61012396
:10022000BB621023FB6200237B6307F118031846AF
:1002300001F002FE0346002B01D000F047FC0F2323
:100240007B600023BB600023FB6000233B61002335
:100250007B613B1D0021184602F070F80346002B1D
:1002600001D000F033FC00BF4037BD4680BD000028
:1002700080B500AF124B134A1A60114B124A5A60F4
:100280000F4B00229A600E4B0022DA600C4B4FF4A9
:1002900080421A610A4B00225A61094B00229A617E
:1002A000074B0022DA61064B00221A62044801F073
:1002B00027F90346002B01D000F008FC00BF80BDE9
:1002C000AC00002000540040A086010080B58AB038
:1002D00000AF07F1200300221A605A603B1D002284
:1002E0001A605A609A60DA601A615A619A61274B03
:1002F000274A1A60254B07225A60244B00229A6035
:10030000224B40F2E732DA60204B00221A611F4B89
:1003100000229A611D4802F079FA0346002B01D0B1
:1003200000F0D4FB00233B6200237B6207F1200333
:100330001946164802F0B0FF0346002B01D000F02A
:10034000C5FB60237B600023BB600023FB600023B0
:100350007B613B1D042219460C4802F09DFC0346BC
:10036000002B01D000F0B2FB3B1D0C2219460748C0
:1003700002F092FC0346002B01D000F0A7FB0348DB
:1003800000F040FC00BF2837BD4680BD00010020C2
:100390000004004080B500AF114B124A1A60104BA8
:1003A0004FF4E1325A600E4B00229A600C4B00224F
:1003B000DA600B4B00221A61094B0C225A61084B80
:1003C00000229A61064B0022DA61054802F0D4FF50
:1003D0000346002B01D000F079FB00BF80BD00BFB9
:1003E000480100200038014080B588B000AF07F117
:1003F000100300221A605A609A60DA60424B9B69CF
:10040000414A43F0100393613F4B9B6903F0100393
:10041000FB60FB683C4B9B693B4A43F004039361E0
:10042000394B9B6903F00403BB60BB68364B9B6987
:10043000354A43F008039361334B9B6903F008038B
:100440007B607B6800224FF40051304801F005F8D2
:1004500000220F212E4801F000F800224FF44061E5
:100460002C4800F0FAFF4FF400533B6101237B61FD
:100470000023BB610223FB6107F1100319462348E7
:1004800000F050FE0F233B6101237B610023BB6121
:100490000223FB6107F1100319461D4800F042FEDC
:1004A00010233B6100237B610223BB6107F1100332
:1004B0001946174800F036FE20233B61164B7B613E
:1004C0000023BB6107F110031946114800F02AFE12
:1004D0004FF440633B6101237B610023BB61022336
:1004E000FB6107F1100319460A4800F01BFE0022C9
:1004F0000521172000F0EBFD172000F004FE00BFDF
:100500002037BD4680BD00BF0010024000100140F2
:1005100000080140000C01400000211080B582B0AD
:1005200000AF78600421154802F0C0F90C2113488F
:1005300002F0BCF901220421114800F08EFF0022D4
:1005400008210F4800F089FF01224FF480610D4817
:1005500000F083FF00224FF400610A4800F07DFFA5
:10056000094B4FF42F729A63074B4FF42F721A64A2
:100570004FF4FA7003F02EFB00BFDBE70001002010
:1005800000080140000C01400004004080B584B028
:1005900000AF78600023FB6000F0D4F81CE001207D
:1005A00000F056F98F2000F053F90023FB600CE0B7
:1005B000214AFB6813441B78184600F0DFF9C82075
:1005C00003F008FBFB680133FB60FB680B2B03DCCB
:1005D0001A4B1B68002BEBD0184B1B68002BDED08E
:1005E0001CE0012000F034F98F2000F031F90023E5
:1005F000FB600CE0124AFB6813441B78184600F0BD
:10060000BDF9C82003F0E6FAFB680133FB60FB6824
:10061000092B03DC094B1B68012BEBD0074B1B6834
:10062000012BDED04FF40051064800F02EFF4FF4AE
:10063000FA7003F0CFFACFE710000020A8000020E6
:10064000200000200010014080B582B000AF78602B
:100650001021084800F0EAFE0346002B03D1064BA8
:1006600000221A6002E0044B01221A60642003F0A9
:10067000B1FAEDE700080140A800002080B584B081
:1006800002AF78604FF0FF33009300230022002177
:10069000002003F0CDFD01220121164800F0DDFE0F
:1006A0000421154802F0A4F90C21134802F0A0F926
:1006B00006E002210F4800F0E8FE642000F02EFC66
:1006C00020210C4800F0B2FE0346002BF1D000229E
:1006D0000121084800F0C1FE00220221054800F077
:1006E000BCFE0421044802F0E1F80C21024802F0AB
:1006F000DDF8C7E7000801400001002080B584B0A4
:1007000002AF202000F0DAFE0C4B18683B1D01936D
:100710000023009300230022002103F013FE7B68D6
:10072000002B07D0064B4FF080521A60BFF34F8F5B
:10073000BFF36F8F00BF0837BD4680BD9C0100200E
:1007400004ED00E080B582B000AF0023FB71002310
:10075000FB7108E0FB79114AD35C184600F022F8DF
:10076000FB790133FB71FB79032BF3D90023FB7178
:100770000BE0FB790A4AD35C184600F069F8642064
:1007800000F0CCFBFB790133FB71FB79052BF0D931
:1007900000BF00BF0837BD4680BD00BF000000207D
:1007A0000800002080B586B002AF0346FB71FB79DC
:1007B00023F00F03FB730823BB7304237B73022313
:1007C0003B730123FB72FA7BBB7B1343DAB27B7B67
:1007D0001343DBB25AB2397BFB7A0B43DBB25BB219
:1007E000DB435BB213405BB2DBB2BB7207F10A02C0
:1007F0000A23009301234E21144800F0C5FF012075
:1008000000F08CFBFA7BBB7B1343DBB25AB2797BE3
:100810003B7B0B43D9B2FB7A0B43DBB25BB2DB43CE
:100820005BB213405BB2DBB2BB7207F10A020A2370
:10083000009301234E21054800F0A6FF052000F09B
:100840006DFB00BF1037BD4680BD00BFAC0000206F
:1008500080B586B002AF0346FB71FB7923F00F032E
:10086000FB73FB791B01BB7308237B7304233B736E
:100870000223FB720123BB72FA7B7B7B1343DAB248
:100880003B7B1343DBB25AB2F97ABB7A0B43DBB240
:100890005BB2DB435BB213405BB2DBB27B7207F14E
:1008A00009020A23009301234E21334800F06CFF14
:1008B000022000F033FBFA7B7B7B1343DBB25AB29E
:1008C000397BFB7A0B43D9B2BB7A0B43DBB25BB209
:1008D000DB435BB213405BB2DBB27B7207F1090210
:1008E0000A23009301234E21234800F04DFF0220EC
:1008F00000F014FBBA7B7B7B1343DAB23B7B1343E0
:10090000DBB25AB2F97ABB7A0B43DBB25BB2DB43A0
:100910005BB213405BB2DBB23B7207F108020A2301
:10092000009301234E21144800F02EFF022000F016
:10093000F5FABA7B7B7B1343DBB25AB2397BFB7A85
:100940000B43D9B2BB7A0B43DBB25BB2DB435BB286
:1009500013405BB2DBB23B7207F108020A2300933B
:1009600001234E21044800F00FFF022000F0D6FAC8
:1009700000BF1037BD4680BDAC00002080B586B0FA
:1009800002AF0346FB71FB7923F00F03FB73FB7986
:100990001B01BB7308237B7304233B730223FB728D
:1009A0000123BB72FA7B7B7B1343DAB23B7B13439D
:1009B000DAB2BB7A1343DBB25AB297F90B30DB439E
:1009C0005BB213405BB2DBB27B7207F109020A2310
:1009D000009301234E21334800F0D6FE022000F0A0
:1009E0009DFAFA7B7B7B1343DAB2BB7A1343DBB20B
:1009F0005AB2397BFB7A0B43DBB25BB2DB435BB2AF
:100A000013405BB2DBB27B7207F109020A23009349
:100A100001234E21234800F0B7FE022000F07EFAA9
:100A2000BA7B7B7B1343DAB23B7B1343DAB2BB7AEC
:100A30001343DBB25AB297F90B30DB435BB213407E
:100A40005BB2DBB23B7207F108020A230093012379
:100A50004E21144800F098FE022000F05FFABA7BA5
:100A60007B7B1343DAB2BB7A1343DBB25AB2397BD6
:100A7000FB7A0B43DBB25BB2DB435BB213405BB28E
:100A8000DBB23B7207F108020A23009301234E21D7
:100A9000044800F079FE022000F040FA00BF103751
:100AA000BD4680BDAC00002080B582B000AF78604C
:100AB0007B681B68044A934201D100F013FA00BF1F
:100AC0000837BD4680BD00BF002C014080B400AF98
:100AD00072B600BF00BFFDE780B584B000AF194B10
:100AE0009B69184A43F001039361164B9B6903F01D
:100AF0000103BB60BB68134BDB69124A43F08053B0
:100B0000D361104BDB6903F080537B607B6804206A
:100B100000F0D2FA002207216FF0010000F0D7FAAE
:100B2000094B5B68FB60FB6823F0E063FB60FB68DC
:100B300043F08063FB60044AFB68536000BF1037DA
:100B4000BD4680BD001002400000014080B588B065
:100B500000AF786007F1100300221A605A609A60B3
:100B6000DA607B681B68154A934223D1144B9B695A
:100B7000134A43F008039361114B9B6903F0080388
:100B8000FB60FB68C0233B6112237B610323FB6195
:100B900007F1100319460B4800F0C4FA084BDB6953
:100BA000074A43F40013D361054BDB6903F40013D8
:100BB000BB60BB6800BF2037BD4680BD005400400D
:100BC00000100240000C014080B485B000AF786096
:100BD0007B681B68094A93420BD1094BDB69084AC1
:100BE00043F00203D361064BDB6903F00203FB60B1
:100BF000FB6800BF1437BD4680BC7047000400404E
:100C00000010024080B588B000AF786007F1100393
:100C100000221A605A609A60DA607B681B681B4A7F
:100C200093422FD11A4B9B69194A43F004039361F5
:100C3000174B9B6903F00403FB60FB68144B9B6933
:100C4000134A43F008039361114B9B6903F00803B7
:100C5000BB60BB6880233B6102237B610223FB6195
:100C600007F1100319460B4800F05CFA02233B61C0
:100C700002237B610223FB6107F11003194606483A
:100C800000F050FA00BF2037BD4680BD0004004090
:100C90000010024000080140000C014080B588B0FF
:100CA00000AF786007F1100300221A605A609A6062
:100CB000DA607B681B681C4A934231D11B4B9B69ED
:100CC0001A4A43F480439361184B9B6903F48043B1
:100CD000FB60FB68154B9B69144A43F00403936166
:100CE000124B9B6903F00403BB60BB684FF40073B5
:100CF0003B6102237B610323FB6107F1100319466B
:100D00000B4800F00FFA4FF480633B6100237B61D6
:100D10000023BB6107F110031946054800F002FAF1
:100D200000BF2037BD4680BD0038014000100240A2
:100D30000008014080B58CB000AF78600023BB6232
:100D400000237B62002387F82F302E4B9B692D4AAE
:100D500043F4006393612B4B9B6903F40063BB6016
:100D6000BB6807F10C0207F110031146184601F0A9
:100D700055FC01F03FFCB862BB6A234AA2FB032387
:100D80009B0C013B7B62214B214A1A601F4B40F2B6
:100D9000E732DA601D4A7B6A53601C4B00221A61FD
:100DA0001A4B00229A60194B00229A61174801F0F1
:100DB00083FC034687F82F3097F82F30002B1BD188
:100DC000124801F0D1FC034687F82F3097F82F30F6
:100DD000002B11D1192000F096F97B680F2B08D851
:100DE00000227968192000F072F90A4A7B681360C2
:100DF00002E0012387F82F3097F82F30184630375C
:100E0000BD4680BD0010024083DE1B43A0010020D0
:100E1000002C01403000002080B400AF00BFFDE78F
:100E200080B400AF00BFFDE780B400AF00BFFDE7B6
:100E300080B400AF00BFFDE780B400AF00BFFDE7A6
:100E400080B400AF00BFBD4680BC704780B500AF26
:100E5000024801F031FE00BF80BD00BFA0010020AC
:100E600080B400AF00BFBD4680BC7047FFF7F8FFFD
:100E70000B480C490C4A002302E0D458C4500433F8
:100E8000C4188C42F9D3094A094C002301E01360CD
:100E90000432A242FBD304F0A7F8FFF759F97047D8
:100EA000000000208C000020805100088C000020F1
:100EB00080100020FEE7000080B500AF084B1B68E3
:100EC000074A43F010031360032000F0F5F80720F1
:100ED000FFF730FFFFF700FE0023184680BD00BF7C
:100EE0000020024080B400AF054B1B781A46054B2A
:100EF0001B681344034A136000BFBD4680BC7047A3
:100F000034000020E801002080B400AF024B1B68D1
:100F10001846BD4680BC7047E801002080B584B00B
:100F200000AF7860FFF7F0FFB8607B68FB60FB689C
:100F3000B3F1FF3F05D00A4B1B781A46FB681344F8
:100F4000FB6000BFFFF7E0FF0246BB68D31AFA68F8
:100F50009A42F7D800BF00BF1037BD4680BD00BF22
:100F60003400002080B485B000AF78607B6803F067
:100F70000703FB600C4BDB68BB60BA684FF6FF03EE
:100F80001340BB60FB681A02BB68134343F0BF63A6
:100F900043F40033BB60044ABB68D36000BF14371E
:100FA000BD4680BC704700BF00ED00E080B400AFDC
:100FB000044BDB681B0A03F007031846BD4680BCE0
:100FC000704700BF00ED00E080B483B000AF03467F
:100FD000FB7197F90730002B0BDBFB7903F01F0245
:100FE000064997F907305B09012000FA02F241F83F
:100FF000232000BF0C37BD4680BC704700E100E0F5
:1010000080B483B000AF03463960FB7197F90730B5
:10101000002B0ADB3B68DAB20C4997F90730120162
:10102000D2B20B4483F800230AE03B68DAB20849E5
:10103000FB7903F00F03043B1201D2B20B441A7682
:1010400000BF0C37BD4680BC704700BF00E100E028
:1010500000ED00E080B489B000AFF860B9607A605C
:10106000FB6803F00703FB61FB69C3F10703042B73
:1010700028BF0423BB61FB690433062B02D9FB693B
:10108000033B00E000237B614FF0FF32BB6902FAB3
:1010900003F3DA43BB681A407B699A404FF0FF3193
:1010A0007B6901FA03F3D9437B680B40134318466D
:1010B0002437BD4680BC704780B582B000AF7860F1
:1010C0007868FFF74FFF00BF0837BD4680BD80B589
:1010D00086B000AF0346B9607A60FB7300237B6182
:1010E000FFF764FF78617A68B9687869FFF7B2FF43
:1010F000024697F90F3011461846FFF781FF00BFEF
:101100001837BD4680BD80B582B000AF0346FB7185
:1011100097F907301846FFF757FF00BF0837BD465D
:1011200080BD000080B48BB000AF786039600023D0
:101130007B6200233B6269E101227B6A02FA03F3CE
:10114000FB613B681B68FA691340BB61BA69FB69C4
:101150009A4240F058813B685B689A4A93425ED05D
:10116000984A934275D8984A934258D0964A9342E7
:101170006FD8964A934252D0944A934269D8944A7F
:1011800093424CD0924A934263D8924A934246D0BB
:10119000904A93425DD8122B2AD8122B59D801A21B
:1011A00052F823F01F120008F91100080B12000872
:1011B0004D12000853120008531200085312000881
:1011C000531200085312000853120008531200086B
:1011D000531200085312000853120008531200085B
:1011E00053120008531200080112000815120008DB
:1011F000794A934213D02CE03B68DB683B6229E0DC
:101200003B68DB6804333B6224E03B68DB680833FF
:101210003B621FE03B68DB680C333B621AE03B68D3
:101220009B68002B02D104233B6213E03B689B6860
:10123000012B05D108233B627B68FA691A6109E03A
:1012400008233B627B68FA695A6103E000233B6232
:1012500000E000BFBB69FF2B01D87B6801E07B6821
:1012600004337B61BB69FF2B02D87B6A9B0002E0E1
:101270007B6A083B9B003B617B691A680F213B69D5
:1012800001FA03F3DB431A40396A3B6901FA03F3BD
:101290001A437B691A603B685B6803F08053002B3C
:1012A00000F0B1804D4B9B694C4A43F001039361C0
:1012B0004A4B9B6903F00103BB60BB68484A7B6AE9
:1012C0009B08023352F82330FB607B6A03F0030370
:1012D0009B000F2202FA03F3DB43FA681340FB6022
:1012E0007B68404A934213D07B683F4A93420DD0BB
:1012F0007B683E4A934207D07B683D4A934201D1C6
:10130000032306E0042304E0022302E0012300E0BB
:1013100000237A6A02F0030292009340FA681343B2
:10132000FB602F497B6A9B080233FA6841F823204F
:101330003B685B6803F48013002B06D02D4B9A6842
:101340002C49BB6913438B6006E02A4B9A68BB6942
:10135000DB43284913408B603B685B6803F4001350
:10136000002B06D0234BDA682249BB691343CB60BC
:1013700006E0204BDA68BB69DB431E491340CB60B3
:101380003B685B6803F40033002B06D0194B5A68A6
:101390001849BB6913434B6006E0164B5A68BB699A
:1013A000DB43144913404B603B685B6803F48033B4
:1013B000002B21D00F4B1A680E49BB6913430B60F9
:1013C00021E000BF000032100000311000002210A8
:1013D0000000211000001210000011100010024047
:1013E0000000014000080140000C014000100140D5
:1013F00000140140000401400B4B1A68BB69DB4339
:10140000094913400B607B6A01337B623B681A68B1
:101410007B6A22FA03F3002B7FF48EAE00BF00BF7D
:101420002C37BD4680BC70470004014080B485B0B5
:1014300000AF78600B467B807B689A687B8813409E
:10144000002B02D00123FB7301E00023FB73FB7B25
:1014500018461437BD4680BC704780B483B000AFD7
:1014600078600B467B8013467B707B78002B03D023
:101470007A887B681A6103E07B881A047B681A61AA
:1014800000BF0C37BD4680BC704780B485B000AF4C
:1014900078600B467B807B68DB68FB607A88FB6842
:1014A00013401A04FB68D9437B880B401A437B68BE
:1014B0001A6100BF1437BD4680BC704780B582B04A
:1014C00000AF0346FB80084B5A69FB881340002B92
:1014D00006D0054AFB885361FB88184600F006F8E1
:1014E00000BF0837BD4680BD0004014080B483B012
:1014F00000AF0346FB8000BF0C37BD4680BC704781
:1015000080B584B000AF78607B68002B01D10123E7
:101510002BE17B6893F83D30DBB2002B06D17B6872
:10152000002283F83C207868FFF710FB7B682422B8
:1015300083F83D207B681B681A687B681B6822F073
:1015400001021A607B681B681A687B681B6842F49A
:1015500000421A607B681B681A687B681B6822F46B
:1015600000421A6001F032F8F8607B685B68814ADB
:10157000934207D8FB68804A934294BF012300231B
:10158000DBB206E0FB687D4A934294BF012300234F
:10159000DBB2002B01D00123E7E0FB68784AA2FB15
:1015A00003239B0CBB607B681B685B6823F03F01D7
:1015B0007B681B68BA680A435A607B681B681B6AB1
:1015C00023F03F017B685B686A4A934202D8BB689C
:1015D000013309E0BB684FF4967202FB03F3694ADA
:1015E000A2FB03239B0901337A6812680B43136241
:1015F0007B681B68DB6923F44F4222F0FF027B68A3
:101600005B685C498B4219D8FB68591E7B685B6834
:101610005B00B1FBF3F3591C40F6FC730B40002B4D
:101620000AD0FB68591E7B685B685B00B1FBF3F373
:101630000133C3F30B0351E004234FE07B689B6845
:10164000002B11D1FB68581E7B6859680B465B0064
:101650000B44B0FBF3F30133C3F30B03002B0CBFBC
:1016600001230023DBB212E0FB68581E7B68596837
:101670000B469B000B4499000B44B0FBF3F3013382
:10168000C3F30B03002B0CBF01230023DBB2002BA1
:1016900001D0012322E07B689B68002B0ED1FB6800
:1016A000581E7B6859680B465B000B44B0FBF3F394
:1016B0000133C3F30B0343F400430FE0FB68581EF0
:1016C0007B6859680B469B000B4499000B44B0FBA8
:1016D000F3F30133C3F30B0343F440437968096820
:1016E0001343CB617B681B681B6823F0C0017B68D8
:1016F000DA697B681B6A1A437B681B680A431A60B5
:101700007B681B689B6823F4034323F0FF037A681C
:1017100011697A68D26811437A6812680B43936042
:101720007B681B68DB6823F0FF017B685A697B6874
:101730009B691A437B681B680A43DA607B681B68F5
:101740001A687B681B6842F001021A607B680022FD
:101750001A647B68202283F83D207B6800221A638C
:101760007B68002283F83E20002318461037BD46D0
:1017700080BD00BFA08601007F841E00FF083D00E1
:1017800083DE1B43D34D621080B588B002AFF86092
:101790007A601A460B467B8113463B81FFF7B4FB08
:1017A0007861FB6893F83D30DBB2202B40F0E0809D
:1017B0007B690093192301227049F86800F064F9ED
:1017C0000346002B01D00223D3E0FB6893F83C30A2
:1017D000012B01D10223CCE0FB68012283F83C20DD
:1017E000FB681B681B6803F00103012B07D0FB6833
:1017F0001B681A68FB681B6842F001021A60FB68EC
:101800001B681A68FB681B6822F400621A60FB6898
:10181000212283F83D20FB68102283F83E20FB68DC
:1018200000221A64FB687A685A62FB683A895A8512
:10183000FB685B8D9AB2FB681A85FB68504ADA62D6
:1018400079897B693A6AF86800F09CF80346002BB6
:1018500001D001238DE000233B61FB681B685B69BD
:101860003B61FB681B689B693B613B6966E07A6989
:10187000396AF86800F022FA0346002B0DD0FB68A5
:101880001B6C042B07D1FB681B681A68FB681B687C
:1018900042F400721A6001236BE0FB685B6A1A78FD
:1018A000FB681B681A61FB685B6A5A1CFB685A621A
:1018B000FB685B8D9BB2013B9AB2FB685A85FB6863
:1018C0001B8D013B9AB2FB681A85FB681B685B693C
:1018D00003F00403042B1BD1FB681B8D002B17D0D6
:1018E000FB685B6A1A78FB681B681A61FB685B6AB5
:1018F0005A1CFB685A62FB685B8D9BB2013B9AB233
:10190000FB685A85FB681B8D013B9AB2FB681A8500
:101910007A69396AF86800F019FA0346002B0DD08D
:10192000FB681B6C042B07D1FB681B681A68FB68FB
:101930001B6842F400721A6001231AE0FB681B8DD9
:10194000002B94D1FB681B681A68FB681B6842F483
:1019500000721A60FB68202283F83D20FB68002299
:1019600083F83E20FB68002283F83C20002300E03F
:10197000022318461837BD4680BD00BF0200100084
:101980000000FFFF80B588B002AFF8607A603B606E
:101990000B467B81FB68DB6A7B617B69082B06D089
:1019A0007B69012B03D07B6913F5803F08D1FB686D
:1019B0001B681A68FB681B6842F480721A600BE0AF
:1019C000FB681B6B122B07D1FB681B681A68FB684E
:1019D0001B6842F480721A603B6800937B680022A7
:1019E0004FF00111F86800F04FF80346002B0DD0BE
:1019F000FB681B681B6803F48073B3F5807F03D119
:101A0000FB684FF400721A64032335E0FB681B691E
:101A1000B3F5804F08D17B89DBB21A46FB681B689F
:101A200002F0FE021A611BE07B89DB11DBB203F0DE
:101A30000603DBB263F00F03DAB2FB681B681A61BE
:101A40003B687A680E49F86800F098F80346002B66
:101A500001D0012310E07B89DAB2FB681B681A61B0
:101A60003B687A680749F86800F088F80346002B5D
:101A700001D0012300E0002318461837BD4680BD81
:101A8000080001000200010080B584B000AFF860DA
:101A9000B9603B601346FB7148E03B68B3F1FF3F20
:101AA00044D0FFF731FA0246BB69D31A3A689A422A
:101AB00002D33B68002B39D1BB681B0CDBB2012B76
:101AC0000DD1FB681B685B69DA43BB6813409BB2AE
:101AD000002B0CBF01230023DBB21A460CE0FB688D
:101AE0001B689B69DA43BB6813409BB2002B0CBF99
:101AF00001230023DBB21A46FB799A4216D1FB6818
:101B000000221A63FB68202283F83D20FB68002234
:101B100083F83E20FB681B6C43F02002FB681A64CC
:101B2000FB68002283F83C20012323E0BB681B0CE8
:101B3000DBB2012B0DD1FB681B685B69DA43BB6824
:101B400013409BB2002B0CBF01230023DBB21A46CB
:101B50000CE0FB681B689B69DA43BB6813409BB2CF
:101B6000002B0CBF01230023DBB21A46FB799A42FB
:101B700093D0002318461037BD4680BD80B584B091
:101B800000AFF860B9607A603B6071E0FB681B6889
:101B90005B6903F48063B3F5806F23D1FB681B6836
:101BA0001A68FB681B6842F400721A60FB681B68C5
:101BB0006FF480625A61FB6800221A63FB6820227E
:101BC00083F83D20FB68002283F83E20FB681B6CF5
:101BD00043F00402FB681A64FB68002283F83C208F
:101BE000012367E07B68B3F1FF3F41D0FFF78CF939
:101BF00002463B68D31A7A689A4202D37B68002B6C
:101C000036D1BB681B0CDBB2012B0CD1FB681B6807
:101C10005B69DA43BB6813409BB2002B14BF0123FE
:101C20000023DBB20BE0FB681B689B69DA43BB68EF
:101C300013409BB2002B14BF01230023DBB2002B07
:101C400016D0FB6800221A63FB68202283F83D202F
:101C5000FB68002283F83E20FB681B6C43F02002E7
:101C6000FB681A64FB68002283F83C20012321E012
:101C7000BB681B0CDBB2012B0CD1FB681B685B69DA
:101C8000DA43BB6813409BB2002B14BF012300232F
:101C9000DBB20BE0FB681B689B69DA43BB6813404F
:101CA0009BB2002B14BF01230023DBB2002B7FF477
:101CB0006DAF002318461037BD4680BD80B584B097
:101CC00000AFF860B9607A6034E0F86800F086F838
:101CD0000346002B01D0012334E0BB68B3F1FF3F82
:101CE00028D0FFF711F902467B68D31ABA689A42E6
:101CF00002D3BB68002B1DD1FB681B685B6903F036
:101D00008003802B16D0FB6800221A63FB68202218
:101D100083F83D20FB68002283F83E20FB681B6CA3
:101D200043F02002FB681A64FB68002283F83C2021
:101D3000012307E0FB681B685B6903F08003802BCD
:101D4000C3D1002318461037BD4680BD80B584B08E
:101D500000AFF860B9607A6034E0F86800F03EF8EF
:101D60000346002B01D0012334E0BB68B3F1FF3FF1
:101D700028D0FFF7C9F802467B68D31ABA689A429E
:101D800002D3BB68002B1DD1FB681B685B6903F0A5
:101D90000403042B16D0FB6800221A63FB68202280
:101DA00083F83D20FB68002283F83E20FB681B6C13
:101DB00043F02002FB681A64FB68002283F83C2091
:101DC000012307E0FB681B685B6903F00403042B35
:101DD000C3D1002318461037BD4680BD80B483B000
:101DE00000AF78607B681B685B6903F48063B3F5C0
:101DF000806F1BD17B681B686FF480625A617B68BF
:101E000000221A637B68202283F83D207B68002231
:101E100083F83E207B681B6C43F004027B681A64E5
:101E20007B68002283F83C20012300E00023184651
:101E30000C37BD4680BC704780B586B000AF786077
:101E40007B68002B01D1012372E27B681B6803F0E1
:101E50000103002B00F08780924B5B6803F00C03BA
:101E6000042B0CD08F4B5B6803F00C03082B12D1B2
:101E70008C4B5B6803F48033B3F5803F0BD1894B07
:101E80001B6803F40033002B6CD07B685B68002B6D
:101E900068D101234CE27B685B68B3F5803F06D1D3
:101EA000804B1B687F4A43F4803313602EE07B68CD
:101EB0005B68002B0CD17B4B1B687A4A23F4803380
:101EC0001360784B1B68774A23F4802313601DE06E
:101ED0007B685B68B3F5A02F0CD1724B1B68714A0D
:101EE00043F4802313606F4B1B686E4A43F48033C6
:101EF00013600BE06B4B1B686A4A23F4803313605A
:101F0000684B1B68674A23F4802313607B685B6817
:101F1000002B13D0FEF7F8FF386108E0FEF7F4FF5E
:101F200002463B69D31A642B01D9032300E25D4BBF
:101F30001B6803F40033002BF0D014E0FEF7E4FF3D
:101F4000386108E0FEF7E0FF02463B69D31A642BD4
:101F500001D90323ECE1534B1B6803F40033002B3E
:101F6000F0D100E000BF7B681B6803F00203002B88
:101F700063D04C4B5B6803F00C03002B0BD0494B38
:101F80005B6803F00C03082B1CD1464B5B6803F421
:101F90008033002B16D1434B1B6803F00203002B48
:101FA00005D07B681B69012B01D00123C0E13D4BAB
:101FB0001B6823F0F8027B685B69DB003949134337
:101FC0000B603AE07B681B69002B20D0364B012266
:101FD0001A60FEF799FF386108E0FEF795FF0246A8
:101FE0003B69D31A022B01D90323A1E12D4B1B68B6
:101FF00003F00203002BF0D02A4B1B6823F0F802F9
:102000007B685B69DB00274913430B6015E0264BB7
:1020100000221A60FEF778FF386108E0FEF774FFCF
:1020200002463B69D31A022B01D9032380E11D4BE1
:102030001B6803F00203002BF0D17B681B6803F0E0
:102040000803002B3AD07B689B69002B19D0174BF3
:1020500001221A60FEF758FF386108E0FEF754FFCE
:1020600002463B69D31A022B01D9032360E10D4BD1
:102070005B6A03F00203002BF0D0012000F0FEFAAF
:102080001CE00A4B00221A60FEF73EFF38610FE0A9
:10209000FEF73AFF02463B69D31A022B08D9032305
:1020A00046E100BF0010024000004242800442426C
:1020B000924B5B6A03F00203002BE9D17B681B683B
:1020C00003F00403002B00F0A6800023FB758B4B6C
:1020D000DB6903F08053002B0DD1884BDB69874A05
:1020E00043F08053D361854BDB6903F08053BB60C1
:1020F000BB680123FB75824B1B6803F48073002BC4
:1021000018D17F4B1B687E4A43F480731360FEF73F
:10211000FBFE386108E0FEF7F7FE02463B69D31A82
:10212000642B01D9032303E1754B1B6803F480730F
:10213000002BF0D07B68DB68012B06D16F4B1B6A4C
:102140006E4A43F0010313622DE07B68DB68002BCD
:102150000CD16A4B1B6A694A23F001031362674B77
:102160001B6A664A23F0040313621CE07B68DB6889
:10217000052B0CD1614B1B6A604A43F004031362C8
:102180005E4B1B6A5D4A43F0010313620BE05B4B3D
:102190001B6A5A4A23F001031362584B1B6A574AC1
:1021A00023F0040313627B68DB68002B15D0FEF775
:1021B000ABFE38610AE0FEF7A7FE02463B69D31A80
:1021C00041F28832934201D90323B1E04B4B1B6AA1
:1021D00003F00203002BEED014E0FEF795FE386109
:1021E0000AE0FEF791FE02463B69D31A41F28832BB
:1021F000934201D903239BE0404B1B6A03F0020387
:10220000002BEED1FB7D012B05D13C4BDB693B4A1A
:1022100023F08053D3617B68DB69002B00F087805B
:10222000364B5B6803F00C03082B61D07B68DB69DD
:10223000022B46D1334B00221A60FEF765FE38614F
:1022400008E0FEF761FE02463B69D31A022B01D972
:1022500003236DE0294B1B6803F00073002BF0D1C2
:102260007B681B6AB3F5803F08D1244B5B6823F47D
:1022700000327B689B68214913434B601F4B5B68AE
:1022800023F474127B68196A7B685B6A0B431B49F1
:1022900013434B601B4B01221A60FEF735FE386179
:1022A00008E0FEF731FE02463B69D31A022B01D942
:1022B00003233DE0114B1B6803F00073002BF0D0AB
:1022C00035E0104B00221A60FEF71EFE386108E070
:1022D000FEF71AFE02463B69D31A022B01D90323EB
:1022E00026E0064B1B6803F00073002BF0D11EE0C4
:1022F0007B68DB69012B07D1012319E00010024044
:1023000000700040600042420B4B5B68FB60FB6862
:1023100003F480327B681B6A9A4206D1FB6803F49F
:1023200070127B685B6A9A4201D0012300E00023AF
:1023300018461837BD4680BD0010024080B584B0F5
:1023400000AF786039607B68002B01D10123D0E0B9
:102350006A4B1B6803F007033A689A4210D9674B2F
:102360001B6823F0070265493B6813430B60634B0E
:102370001B6803F007033A689A4201D00123B8E0D2
:102380007B681B6803F00203002B20D07B681B686E
:1023900003F00403002B05D0594B5B68584A43F403
:1023A000E06353607B681B6803F00803002B05D0D3
:1023B000534B5B68524A43F460535360504B5B6825
:1023C00023F0F0027B689B684D4913434B607B68A8
:1023D0001B6803F00103002B40D07B685B68012B76
:1023E00007D1474B1B6803F40033002B15D10123A1
:1023F0007FE07B685B68022B07D1414B1B6803F0D1
:102400000073002B09D1012373E03D4B1B6803F0DF
:102410000203002B01D101236BE0394B5B6823F0F1
:1024200003027B685B68364913434B60FEF76CFD23
:10243000F8600AE0FEF768FD0246FB68D31A41F235
:102440008832934201D9032353E02D4B5B6803F09C
:102450000C027B685B689B009A42EBD1274B1B68A0
:1024600003F007033A689A4210D2244B1B6823F00A
:10247000070222493B6813430B60204B1B6803F0A3
:1024800007033A689A4201D0012332E07B681B6857
:1024900003F00403002B08D0194B5B6823F4E062BF
:1024A0007B68DB68164913434B607B681B6803F04D
:1024B0000803002B09D0124B5B6823F460527B6841
:1024C0001B69DB000E4913434B6000F021F8024604
:1024D0000B4B5B681B0903F00F030A49CB5C22FA24
:1024E00003F3094A1360094B1B681846FEF722FCE8
:1024F000002318461037BD4680BD00BF00200240B3
:1025000000100240485100082C000020300000203C
:1025100080B487B000AF0023FB600023BB600023C2
:102520007B6100237B6000233B611E4B5B68FB608B
:10253000FB6803F00C03042B02D0082B03D027E028
:10254000194B3B6127E0FB689B0C03F00F03174A14
:10255000D35C7B60FB6803F48033002B10D0114BFD
:102560005B685B0C03F00103114AD35CBB607B68C2
:102570000D4A03FB02F2BB68B2FBF3F37B6104E09C
:102580007B680C4A02FB03F37B617B693B6102E0E1
:10259000054B3B6100BF3B6918461C37BD4680BCFC
:1025A000704700BF0010024000127A00605100081E
:1025B0007051000800093D0080B400AF024B1B6859
:1025C0001846BD4680BC70472C00002080B500AF87
:1025D000FFF7F2FF0246054B5B681B0A03F0070397
:1025E0000349CB5C22FA03F3184680BD0010024079
:1025F0005851000880B500AFFFF7DEFF0246054BDB
:102600005B68DB0A03F007030349CB5C22FA03F3A0
:10261000184680BD001002405851000880B483B0B5
:1026200000AF786039607B680F221A60114B5B68DD
:1026300003F003027B685A600E4B5B6803F0F00204
:102640007B689A600B4B5B6803F4E0627B68DA603E
:10265000084B5B68DB0803F4E0627B681A61064B99
:102660001B6803F007023B681A6000BF0C37BD46C9
:1026700080BC7047001002400020024080B485B04A
:1026800000AF78600A4B1B680A4AA2FB03235B0A6F
:102690007A6802FB03F3FB6000BFFB685A1EFA6016
:1026A000002BF9D100BF00BF1437BD4680BC704776
:1026B0002C000020D34D621080B582B000AF78604E
:1026C0007B68002B01D1012341E07B6893F83D300A
:1026D000DBB2002B06D17B68002283F83C207868AF
:1026E00000F039F87B68022283F83D207B681A6885
:1026F0007B6804331946104600F0B4FB7B68012266
:1027000083F846207B68012283F83E207B68012203
:1027100083F83F207B68012283F840207B680122F8
:1027200083F841207B68012283F842207B680122E4
:1027300083F843207B68012283F844207B680122D0
:1027400083F845207B68012283F83D20002318464A
:102750000837BD4680BD80B483B000AF786000BF4D
:102760000C37BD4680BC704780B485B000AF786040
:102770007B6893F83D30DBB2012B01D001233AE0B6
:102780007B68022283F83D207B681B68DA687B68DF
:102790001B6842F00102DA607B681B68184A9342AA
:1027A0000ED07B681B68B3F1804F09D07B681B6833
:1027B000144A934204D07B681B68134A934211D198
:1027C0007B681B689B6803F00703FB60FB68062BB4
:1027D00010D07B681B681A687B681B6842F0010296
:1027E0001A6007E07B681B681A687B681B6842F008
:1027F00001021A60002318461437BD4680BC70479A
:10280000002C0140000400400008004080B582B068
:1028100000AF78607B68002B01D1012341E07B6829
:1028200093F83D30DBB2002B06D17B68002283F8A1
:102830003C207868FEF7C8F97B68022283F83D20C7
:102840007B681A687B6804331946104600F00AFB5F
:102850007B68012283F846207B68012283F83E20B2
:102860007B68012283F83F207B68012283F84020A7
:102870007B68012283F841207B68012283F8422093
:102880007B68012283F843207B68012283F844207F
:102890007B68012283F845207B68012283F83D2074
:1028A000002318460837BD4680BD000080B584B0BF
:1028B00000AF786039603B68002B09D17B6893F8E2
:1028C0003E30DBB2012B14BF01230023DBB222E038
:1028D0003B68042B09D17B6893F83F30DBB2012BB6
:1028E00014BF01230023DBB215E03B68082B09D19C
:1028F0007B6893F84030DBB2012B14BF0123002327
:10290000DBB208E07B6893F84130DBB2012B14BFE7
:1029100001230023DBB2002B01D001235EE03B68E2
:10292000002B04D17B68022283F83E2013E03B6831
:10293000042B04D17B68022283F83F200BE03B6824
:10294000082B04D17B68022283F8402003E07B68D7
:10295000022283F841207B681B68012239681846EF
:1029600000F076FC7B681B681E4A934207D17B68A7
:102970001B685A6C7B681B6842F400425A647B688F
:102980001B68184A93420ED07B681B68B3F1804FD6
:1029900009D07B681B68144A934204D07B681B688B
:1029A000124A934211D17B681B689B6803F00703AE
:1029B000FB60FB68062B10D07B681B681A687B687D
:1029C0001B6842F001021A6007E07B681B681A6806
:1029D0007B681B6842F001021A600023184610371A
:1029E000BD4680BD002C01400004004000080040AE
:1029F00080B582B000AF786039607B681B680022C8
:102A00003968184600F024FC7B681B68294A934209
:102A100017D17B681B681A6A41F211131340002B0F
:102A20000FD17B681B681A6A40F244431340002BA5
:102A300007D17B681B685A6C7B681B6822F40042D4
:102A40005A647B681B681A6A41F211131340002B09
:102A50000FD17B681B681A6A40F244431340002B75
:102A600007D17B681B681A687B681B6822F001022B
:102A70001A603B68002B04D17B68012283F83E205A
:102A800013E03B68042B04D17B68012283F83F20CC
:102A90000BE03B68082B04D17B68012283F84020BF
:102AA00003E07B68012283F84120002318460837A1
:102AB000BD4680BD002C014080B584B000AF786079
:102AC0007B681B68DB68FB607B681B681B69BB60FD
:102AD000BB6803F00203002B20D0FB6803F0020365
:102AE000002B1BD07B681B686FF002021A617B68A9
:102AF00001221A777B681B689B6903F00303002B94
:102B000003D0786800F093F905E0786800F086F962
:102B1000786800F095F97B6800221A77BB6803F0AB
:102B20000403002B20D0FB6803F00403002B1BD010
:102B30007B681B686FF004021A617B6802221A77B7
:102B40007B681B689B6903F44073002B03D0786893
:102B500000F06DF905E0786800F060F9786800F041
:102B60006FF97B6800221A77BB6803F00803002B1B
:102B700020D0FB6803F00803002B1BD07B681B6888
:102B80006FF008021A617B6804221A777B681B6861
:102B9000DB6903F00303002B03D0786800F047F9EA
:102BA00005E0786800F03AF9786800F049F97B6848
:102BB00000221A77BB6803F01003002B20D0FB68BB
:102BC00003F01003002B1BD07B681B686FF0100212
:102BD0001A617B6808221A777B681B68DB6903F43B
:102BE0004073002B03D0786800F021F905E0786885
:102BF00000F014F9786800F023F97B6800221A7756
:102C0000BB6803F00103002B0CD0FB6803F0010349
:102C1000002B07D07B681B686FF001021A6178688F
:102C2000FDF742FFBB6803F08003002B0CD0FB686C
:102C300003F08003002B07D07B681B686FF08002D5
:102C40001A61786800F08FFBBB6803F04003002B2B
:102C50000CD0FB6803F04003002B07D07B681B6897
:102C60006FF040021A61786800F0F3F8BB6803F077
:102C70002003002B0CD0FB6803F02003002B07D0AF
:102C80007B681B686FF020021A61786800F062FBB5
:102C900000BF1037BD4680BD80B586B000AFF8607C
:102CA000B9607A600023FB75FB6893F83C30012B18
:102CB00001D10223AEE0FB68012283F83C207B684F
:102CC0000C2B00F29F8001A252F823F0012D000886
:102CD000052E0008052E0008052E0008412D0008CD
:102CE000052E0008052E0008052E0008832D00087B
:102CF000052E0008052E0008052E0008C32D00082B
:102D0000FB681B68B968184600F01AF9FB681B6875
:102D10009A69FB681B6842F008029A61FB681B68AD
:102D20009A69FB681B6822F004029A61FB681B68C1
:102D30009969BB681A69FB681B680A439A6164E079
:102D4000FB681B68B968184600F060F9FB681B68EF
:102D50009A69FB681B6842F400629A61FB681B6811
:102D60009A69FB681B6822F480629A61FB681B68A1
:102D70009969BB681B691A02FB681B680A439A6160
:102D800043E0FB681B68B968184600F0A9F9FB68C6
:102D90001B68DA69FB681B6842F00802DA61FB68AD
:102DA0001B68DA69FB681B6822F00402DA61FB68C1
:102DB0001B68D969BB681A69FB681B680A43DA613A
:102DC00023E0FB681B68B968184600F0F3F9FB685C
:102DD0001B68DA69FB681B6842F40062DA61FB6811
:102DE0001B68DA69FB681B6822F48062DA61FB68A1
:102DF0001B68D969BB681B691A02FB681B680A4318
:102E0000DA6102E00123FB7500BFFB68002283F852
:102E10003C20FB7D18461837BD4680BD80B483B08A
:102E200000AF786000BF0C37BD4680BC704780B4EF
:102E300083B000AF786000BF0C37BD4680BC7047E0
:102E400080B483B000AF786000BF0C37BD4680BC53
:102E5000704780B483B000AF786000BF0C37BD46C8
:102E600080BC704780B485B000AF786039607B6803
:102E70001B68FB607B682F4A93420BD07B68B3F1E1
:102E8000804F07D07B682C4A934203D07B682B4A43
:102E9000934208D1FB6823F07003FB603B685B68DA
:102EA000FA681343FB607B68224A93420BD07B682D
:102EB000B3F1804F07D07B681F4A934203D07B68F1
:102EC0001E4A934208D1FB6823F44073FB603B68C1
:102ED000DB68FA681343FB60FB6823F080023B6801
:102EE0005B691343FB607B68FA681A603B689A6809
:102EF0007B68DA623B681A687B689A627B680D4A75
:102F0000934203D13B681A697B681A637B6801228C
:102F10005A617B681B6903F00103002B05D07B68B5
:102F20001B6923F001027B681A6100BF1437BD469C
:102F300080BC7047002C01400004004000080040A5
:102F400080B487B000AF786039607B681B6A7B61B2
:102F50007B681B6A23F001027B681A627B685B68EE
:102F60003B617B689B69FB60FB6823F07003FB603F
:102F7000FB6823F00303FB603B681B68FA6813439C
:102F8000FB607B6923F002037B613B689B687A6985
:102F900013437B617B681C4A93420CD17B6923F00D
:102FA00008037B613B68DB687A6913437B617B695B
:102FB00023F004037B617B68134A934211D13B6980
:102FC00023F480733B613B6923F400733B613B68EE
:102FD0005B693A6913433B613B689B693A691343F8
:102FE0003B617B683A695A607B68FA689A613B6822
:102FF0005A687B685A637B687A691A6200BF1C371B
:10300000BD4680BC704700BF002C014080B487B033
:1030100000AF786039607B681B6A7B617B681B6AE4
:1030200023F010027B681A627B685B683B617B68F7
:103030009B69FB60FB6823F4E043FB60FB6823F4BF
:103040004073FB603B681B681B02FA681343FB601C
:103050007B6923F020037B613B689B681B017A69D5
:1030600013437B617B681D4A93420DD17B6923F03A
:1030700080037B613B68DB681B017A6913437B61DA
:103080007B6923F040037B617B68144A934213D130
:103090003B6923F480633B613B6923F400633B613C
:1030A0003B685B699B003A6913433B613B689B69E2
:1030B0009B003A6913433B617B683A695A607B68BD
:1030C000FA689A613B685A687B689A637B687A6998
:1030D0001A6200BF1C37BD4680BC7047002C0140FF
:1030E00080B487B000AF786039607B681B6A7B6111
:1030F0007B681B6A23F480727B681A627B685B685A
:103100003B617B68DB69FB60FB6823F07003FB605D
:10311000FB6823F00303FB603B681B68FA681343FA
:10312000FB607B6923F400737B613B689B681B0237
:103130007A6913437B617B681D4A93420DD17B6999
:1031400023F400637B613B68DB681B027A691343ED
:103150007B617B6923F480637B617B68144A9342C3
:1031600013D13B6923F480533B613B6923F4005343
:103170003B613B685B691B013A6913433B613B68F8
:103180009B691B013A6913433B617B683A695A604A
:103190007B68FA68DA613B685A687B68DA637B6847
:1031A0007A691A6200BF1C37BD4680BC704700BFF9
:1031B000002C014080B487B000AF786039607B6834
:1031C0001B6A3B617B681B6A23F480527B681A622E
:1031D0007B685B687B617B68DB69FB60FB6823F471
:1031E000E043FB60FB6823F44073FB603B681B68B3
:1031F0001B02FA681343FB603B6923F400533B61F5
:103200003B689B681B033A6913433B617B680F4A29
:10321000934209D17B6923F480437B613B685B69FE
:103220009B017A6913437B617B687A695A607B688A
:10323000FA68DA613B685A687B681A647B683A69A5
:103240001A6200BF1C37BD4680BC7047002C01408D
:1032500080B487B000AFF860B9607A60BB6803F0F3
:103260001F03012202FA03F37B61FB681A6A7B6980
:10327000DB431A40FB681A62FB681A6ABB6803F0FA
:103280001F03796801FA03F31A43FB681A6200BF4F
:103290001C37BD4680BC704780B485B000AF7860F5
:1032A00039607B6893F83C30012B01D1022346E062
:1032B0007B68012283F83C207B68022283F83D2052
:1032C0007B681B685B68FB607B681B689B68BB60F6
:1032D000FB6823F07003FB603B681B68FA681343CC
:1032E000FB607B681B68FA685A607B681B68164A3B
:1032F00093420ED07B681B68B3F1804F09D07B6886
:103300001B68124A934204D07B681B68104A9342A0
:103310000CD1BB6823F08003BB603B685B68BA6874
:103320001343BB607B681B68BA689A607B680122A4
:1033300083F83D207B68002283F83C200023184658
:103340001437BD4680BC7047002C0140000400408B
:103350000008004080B483B000AF786000BF0C3735
:10336000BD4680BC704780B483B000AF786000BFBA
:103370000C37BD4680BC704780B582B000AF786026
:103380007B68002B01D1012342E07B6893F8413038
:10339000DBB2002B06D17B68002283F840207868DE
:1033A000FDF77CFC7B68242283F841207B681B6846
:1033B000DA687B681B6822F40052DA60786800F0F3
:1033C00071F97B681B681A697B681B6822F490425C
:1033D0001A617B681B685A697B681B6822F02A02A5
:1033E0005A617B681B68DA687B681B6842F400528C
:1033F000DA607B6800225A647B68202283F84120CF
:103400007B68202283F842207B6800225A630023D5
:1034100018460837BD4680BD80B58AB002AFF86057
:10342000B9603B601346FB8000237B61FB6893F827
:103430004130DBB2202B75D1BB68002B02D0FB885A
:10344000002B01D101236EE0FB6800225A64FB6867
:10345000212283F84120FDF757FD7861FB68FA8847
:103460009A84FB68FA88DA84FB689B68B3F5805F0E
:1034700008D1FB681B69002B04D10023FB61BB68EA
:10348000BB6103E0BB68FB610023BB612EE03B68CE
:1034900000937B6900228021F86800F048F8034619
:1034A000002B05D0FB68202283F8412003233AE05B
:1034B000FB69002B0BD1BB691B881A46FB681B6894
:1034C000C2F308025A60BB690233BB6107E0FB69C3
:1034D0001A78FB681B685A60FB690133FB61FB6863
:1034E000DB8C9BB2013B9AB2FB68DA84FB68DB8C15
:1034F0009BB2002BCBD13B6800937B69002240211B
:10350000F86800F014F80346002B05D0FB68202271
:1035100083F84120032306E0FB68202283F8412042
:10352000002300E0022318462037BD4680BD80B549
:1035300086B000AFF860B9603B601346FB713BE0BA
:103540003B6AB3F1FF3F37D0FDF7DEFC02463B6834
:10355000D31A3A6A9A4202D33B6A002B01D1032361
:103560003AE0FB681B68DB6803F00403002B23D000
:10357000BB68802B20D0BB68402B1DD0FB681B682C
:103580001B6803F00803082B16D100237B61FB683E
:103590001B681B687B61FB681B685B687B617B69E0
:1035A000F86800F01DF8FB6808225A64FB680022E6
:1035B00083F8402001230FE0FB681B681A68BB6892
:1035C0001340BA689A420CBF01230023DBB21A46AB
:1035D000FB799A42B4D0002318461837BD4680BD07
:1035E00080B495B000AF78607B681B680C337B6358
:1035F0007B6B53E8003F3B633B6B23F49073FB64AE
:103600007B681B680C33FA6C3A64FB63F96B3A6CA9
:1036100041E80023BB63BB6B002BE5D17B681B68D3
:1036200014333B623B6A53E8003FFB61FB6923F0C4
:103630000103BB647B681B681433BA6CFA62BB621B
:10364000B96AFA6A41E800237B627B6A002BE5D104
:103650007B681B6B012B19D17B681B680C33FB60EB
:10366000FB6853E8003FBB60BB6823F010037B643A
:103670007B681B680C337A6CBA617B617969BA69C3
:1036800041E800233B613B69002BE5D17B682022A8
:1036900083F842207B6800221A6300BF5437BD467E
:1036A00080BC704780B584B000AF78607B681B68D1
:1036B0001B6923F440517B68DA687B681B680A4306
:1036C0001A617B689A687B681B691A437B685B692F
:1036D0001343BB607B681B68DB6823F4B05323F0A3
:1036E0000C037A681268B9680B43D3607B681B6867
:1036F0005B6923F440717B689A697B681B680A43A5
:103700005A617B681B682C4A934203D1FEF772FF13
:10371000F86002E0FEF75AFFF860FA6813469B0073
:1037200013449A001A447B685B689B00B2FBF3F376
:10373000224AA2FB03235B091901FA6813469B0086
:1037400013449A001A447B685B689B00B2FBF3F257
:103750001A4BA3FB02035B09642000FB03F3D31A9B
:103760001B013233154AA2FB03235B0903F0F0036C
:103770001944FA6813469B0013449A001A447B6864
:103780005B689B00B2FBF3F20C4BA3FB02035B09EB
:10379000642000FB03F3D31A1B013233074AA2FB58
:1037A00003235B0903F00F027B681B680A449A60DD
:1037B00000BF1037BD4680BD003801401F85EB516A
:1037C00080B483B000AF78607B6803F108027B6847
:1037D0005A607B684FF0FF329A607B6803F1080201
:1037E0007B68DA607B6803F108027B681A617B689A
:1037F00000221A6000BF0C37BD4680BC704780B401
:1038000083B000AF78607B6800221A6100BF0C377C
:10381000BD4680BC704780B485B000AF7860396029
:103820007B685B68FB603B68FA685A60FB689A6873
:103830003B689A60FB689B683A685A60FB683A6824
:103840009A603B687A681A617B681B685A1C7B68BF
:103850001A6000BF1437BD4680BC704780B485B085
:1038600000AF786039603B681B68BB60BB68B3F130
:10387000FF3F03D17B681B69FB600CE07B6808336A
:10388000FB6002E0FB685B68FB60FB685B681B68D1
:10389000BA689A42F6D2FB685A683B685A603B683D
:1038A0005B683A689A603B68FA689A60FB683A68B5
:1038B0005A603B687A681A617B681B685A1C7B688F
:1038C0001A6000BF1437BD4680BC704780B485B015
:1038D00000AF78607B681B69FB607B685B687A6817
:1038E00092689A607B689B687A6852685A60FB6845
:1038F0005B687A689A4203D17B689A68FB685A6071
:103900007B6800221A61FB681B685A1EFB681A60FC
:10391000FB681B6818461437BD4680BC704780B5ED
:103920008CB004AFF860B9603B601346FB80FB8845
:103930009B00184601F0CCF878617B69002B0ED013
:10394000A02001F0C5F8F861FB69002B03D0FB69EA
:103950007A691A6305E0786901F0B2F901E00023A1
:10396000FB61FB69002B13D0FA8800230393FB69EA
:103970000293FB6A0193BB6A00933B68B968F868DD
:1039800000F00EF8F86900F0BBF80123BB6102E01B
:103990004FF0FF33BB61BB6918462037BD4680BD81
:1039A00080B588B000AFF860B9607A603B603B6B6F
:1039B0001A6B7B6803F18043013B9B001344BB619E
:1039C000BB6923F00703BB61BB6903F00703002B4E
:1039D00011D04FF0A00383F31188BFF36F8FBFF3B3
:1039E0004F8F7B6100BF4FF47A7305223F494048F7
:1039F000FFF712FDF7E7BB68002B1FD00023FB6128
:103A000012E0BA68FB69134419783A6BFB691344F6
:103A100034330A461A70BA68FB6913441B78002BCA
:103A200006D0FB690133FB61FB690F2BE9D900E08C
:103A300000BF3B6B002283F8432003E03B6B002276
:103A400083F83420BB6A062B01D90623BB623B6B8B
:103A5000BA6ADA623B6BBA6A5A643B6B00229A64B8
:103A60003B6B04331846FFF7CAFE3B6B183318460E
:103A7000FFF7C5FE3B6B3A6B1A61BB6AC3F10702E5
:103A80003B6B9A613B6B3A6B5A623B6B98330422F7
:103A90000021184601F042FA3B6B9C3301220021C1
:103AA000184601F03BFA3B6B4C334C220021184680
:103AB00001F034FA3B6B0F4A1A653B6B0E4A5A65AC
:103AC0003B6B0E4A9A653A68F968B86900F0C2FD26
:103AD00002463B6B1A60FB6A002B02D0FB6A3A6B12
:103AE0001A6000BF2037BD4680BD00BF18510008D6
:103AF00048010020400F0020A80F002010100020D7
:103B000080B582B000AF786000F0BEFE2A4B1B6823
:103B10000133294A1360294B1B68002B09D1274A1E
:103B20007B681360244B1B68012B10D100F0E2FA74
:103B30000DE0234B1B68002B09D1204B1B68DA6A70
:103B40007B68DB6A9A4202D81C4A7B6813601D4B73
:103B50001B6801331B4A13607B68DB6A01229A40B1
:103B6000194B1B681343184A13607B68DA6A1346C3
:103B70009B0013449B00154A1A447B680433194682
:103B80001046FFF748FE00F0B9FE0D4B1B68002BF6
:103B90000ED00A4B1B68DA6A7B68DB6A9A4207D24E
:103BA0000B4B4FF080521A60BFF34F8FBFF36F8FF4
:103BB00000BF0837BD4680BDEC020020EC010020AC
:103BC000F802002008030020F4020020F001002089
:103BD00004ED00E080B584B000AF78600023FB60A6
:103BE0007B68002B1ED0174B1B68002B11D04FF0A9
:103BF000A00383F31188BFF36F8FBFF34F8FBB60B8
:103C000000BF4FF47A7305220F491048FFF704FCF8
:103C1000F7E700F07FF80021786800F0B5FC00F0CD
:103C200087F8F860FB68002B07D1094B4FF08052F2
:103C30001A60BFF34F8FBFF36F8F00BF1037BD46C1
:103C400080BD00BF14030020185100084801002067
:103C500004ED00E080B586B002AF234B0193002352
:103C600000930023802221492148FFF758FEF86085
:103C7000FB68012B1BD14FF0A00383F31188BFF326
:103C80006F8FBFF34F8FBB6000BF1A4B1B684C3365
:103C9000194A1360194B4FF0FF321A60184B01227A
:103CA0001A60184B00221A6000F060FD15E0FB68F6
:103CB000B3F1FF3F11D14FF0A00383F31188BFF39D
:103CC0006F8FBFF34F8F7B6000BF4FF47A73052275
:103CD0000D490E48FFF7A0FBF7E70D4B1B6800BF2F
:103CE0001037BD4680BD00BF1003002020510008E2
:103CF000C5400008EC0100203C0000200C0300201F
:103D0000F8020020F00200201851000848010020AD
:103D10007451000880B400AF044B1B680133034AA0
:103D2000136000BFBD4680BC704700BF1403002075
:103D300080B584B000AF0023FB600023BB60454B1F
:103D40001B68002B11D14FF0A00383F31188BFF340
:103D50006F8FBFF34F8F3B6000BF4FF47A73052224
:103D60003D493E48FFF758FBF7E700F08DFD394B22
:103D70001B68013B374A1360364B1B68002B61D12F
:103D8000374B1B68002B5DD02EE0364BDB68DB68C1
:103D9000FB60FB6818331846FFF798FDFB68043397
:103DA0001846FFF793FDFB68DB6A01229A402E4B11
:103DB0001B6813432C4A1360FB68DA6A13469B00A6
:103DC00013449B00294A1A44FB68043319461046E1
:103DD000FFF721FDFB68DA6A254B1B68DB6A9A4214
:103DE00002D3244B01221A601E4B1B68002BCCD13E
:103DF000FB68002B01D000F001FA1F4B1B687B60B1
:103E00007B68002B10D000F03BF80346002B02D05B
:103E1000184B01221A607B68013B7B607B68002B9A
:103E2000F1D1154B00221A60124B1B68002B09D0F0
:103E30000123BB60114B4FF080521A60BFF34F8FCC
:103E4000BFF36F8F00F05AFDBB6818461037BD46B0
:103E500080BD00BF14030020185100084801002055
:103E6000EC020020AC020020F4020020F00100204F
:103E7000EC01002000030020FC02002004ED00E023
:103E800080B586B000AF00237B614B4B1B68002BD5
:103E900040F08780494B1B6801333B61474A3B69CF
:103EA00013603B69002B27D1454B1B681B68002B17
:103EB00011D04FF0A00383F31188BFF36F8FBFF3CE
:103EC0004F8F3B6000BF4FF47A7305223D493E4857
:103ED000FFF7A2FAF7E73A4B1B68FB603B4B1B6806
:103EE000374A1360394AFB681360394B1B6801334A
:103EF000374A136000F082F9364B1B683A699A42E0
:103F000048D32F4B1B681B68002B04D1314B4FF05B
:103F1000FF321A603EE02A4B1B68DB68DB68BB603F
:103F2000BB685B687B603A697B689A4203D2294A26
:103F30007B6813602EE0BB6804331846FFF7C6FCAD
:103F4000BB689B6A002B04D0BB6818331846FFF788
:103F5000BDFCBB68DB6A01229A401F4B1B68134300
:103F60001D4A1360BB68DA6A13469B0013449B002A
:103F70001A4A1A44BB68043319461046FFF74BFC33
:103F8000BB68DA6A164B1B68DB6A9A42B9D3012315
:103F90007B61B6E7134B1B68002B07D001237B61C5
:103FA00004E0114B1B6801330F4A13607B6918460C
:103FB0001837BD4680BD00BF14030020F00200206A
:103FC000A40200201851000848010020A802002087
:103FD000040300200C030020F4020020F001002064
:103FE000EC01002000030020FC02002080B586B018
:103FF00000AF2C4B1B68002B03D02B4B01221A6007
:104000004BE0294B00221A60284B1B68FB60FB68C1
:10401000B3FA83F3FB72FB7AC3F11F037B6124497C
:104020007A6913469B0013449B000B441B68002BCA
:1040300011D14FF0A00383F31188BFF36F8FBFF34B
:104040004F8F7B6000BF4FF47A73052219491A48DD
:10405000FFF7E2F9F7E77A6913469B0013449B00E8
:10406000134A13443B613B695B685A683B695A6079
:104070003B695A683B6908339A4204D13B695B68E3
:104080005A683B695A603B695B68DB680B4A13609E
:104090000A4B1B684C330A4A136000BF1837BD46F1
:1040A00080BD00BF1403002000030020F4020020A4
:1040B000F00100201851000848010020EC01002008
:1040C0003C00002080B582B000AF786000F052F86C
:1040D000064B1B68012BF9D9054B4FF080521A6033
:1040E000BFF34F8FBFF36F8FF0E700BFF0010020E9
:1040F00004ED00E080B582B000AF00237B600CE0EF
:104100007A6813469B0013449B00124A13441846D6
:10411000FFF756FB7B6801337B607B68062BEFD98A
:104120000D48FFF74DFB0D48FFF74AFB0C48FFF722
:1041300047FB0C48FFF744FB0B48FFF741FB0B4BD9
:10414000054A1A600A4B054A1A6000BF0837BD4687
:1041500080BD00BFF00100207C0200209002002002
:10416000AC020020C0020020D8020020A4020020DF
:10417000A802002080B582B000AF19E000F084FBF7
:10418000104BDB68DB687B607B6804331846FFF705
:104190009DFB0D4B1B68013B0B4A13600B4B1B68CF
:1041A000013B0A4A136000F0A9FB786800F010F8A0
:1041B000064B1B68002BE1D100BF00BF0837BD468E
:1041C00080BD00BFC0020020EC020020D40200200D
:1041D00080B582B000AF78607B684C33184600F041
:1041E000A5FE7B681B6B184600F06AFD786800F03E
:1041F00067FD00BF0837BD4680BD000080B400AF3A
:10420000094B1B681B68002B04D1084B4FF0FF3291
:104210001A6005E0044B1B68DB681B68034A1360E7
:1042200000BFBD4680BC7047A40200200C030020E4
:1042300080B586B000AFF860B9607A603B60FB681B
:10424000002B11D04FF0A00383F31188BFF36F8FC1
:10425000BFF34F8F3B6100BF4FF47A73052235499E
:104260003548FFF7D9F8F7E700F00EFB334B1A6833
:10427000FB6813449C331B78DBB2022B22D02F4BFC
:104280001B68FA68263253F82210BA68D2431140EC
:10429000FA68263243F82210284B1A68FB68134448
:1042A0009C3301221A703B6A002B0BD00121386A23
:1042B00000F06AF9224B4FF080521A60BFF34F8F23
:1042C000BFF36F8F00F01AFB00F0DEFA3B68002BA3
:1042D00007D01A4B1B68FA68263253F822203B6835
:1042E0001A60164B1A68FB6813449C331B78DBB2C8
:1042F000022B02D000237B610EE0104B1B68FA6892
:10430000263253F822107A68D2431140FA682632D6
:1043100043F8221001237B61084B1A68FB681344A1
:104320009C3300221A7000F0E9FA7B6918461837AE
:10433000BD4680BD1851000848010020EC01002056
:1043400004ED00E080B590B000AFF860B9607A602D
:10435000FB700123FB63FB68002B11D14FF0A0031E
:1043600083F31188BFF36F8FBFF34F8FFB6200BFE2
:104370004FF47A7305227B497B48FFF74DF8F7E746
:10438000BB68002B11D04FF0A00383F31188BFF35B
:104390006F8FBFF34F8FBB6200BF4FF47A7305225C
:1043A00070497148FFF738F8F7E700F041FBFB6808
:1043B000BB63EFF311824FF0A00383F31188BFF3C7
:1043C0006F8FBFF34F8F7A623B627B6A7B63BB6CFC
:1043D000002B06D0BB6BBA68263253F82220BB6C88
:1043E0001A60BA6BBB6813449C331B7887F8333070
:1043F000BA6BBB6813449C3302221A70FB78042BFF
:104400003BD801A252F823F0A74400081D4400083D
:1044100039440008514400085F440008BB6BBA6887
:10442000263253F822207B6842EA0301BB6BBA684C
:10443000263243F8221039E0BB6BBA68263253F8B3
:104440002230591CBB6BBA68263243F822102DE08B
:10445000BB6BBA682632796843F8221026E097F8D9
:104460003330022B06D0BB6BBA682632796843F82A
:1044700022101BE00023FB6318E03C4B1B68002B61
:1044800013D04FF0A00383F31188BFF36F8FBFF3F6
:104490004F8FFB6100BF4FF47A73052231493248D8
:1044A000FEF7BAFFF7E700BF00E000BF97F8333030
:1044B000012B4CD1BB6B9B6A002B11D04FF0A0039A
:1044C00083F31188BFF36F8FBFF34F8FBB6100BFC2
:1044D0004FF47A73052223492348FEF79DFFF7E73F
:1044E000234B1B68002B1CD1BB6B04331846FFF712
:1044F000EDF9BB6BDB6A01229A401E4B1B6813432C
:104500001C4A1360BB6BDA6A13469B0013449B0082
:10451000194A1A44BB6B043319461046FFF77BF95E
:1045200005E0BB6B183319461448FFF774F9BB6BF1
:10453000DA6A134B1B68DB6A9A4208D9FB6C002BC2
:1045400002D0FB6C01221A600E4B01221A607B6BB9
:104550007B617B6983F3118800BFFB6B1846403792
:10456000BD4680BD1851000848010020F00200201F
:1045700014030020F4020020F0010020AC0200200F
:10458000EC0100200003002080B584B000AF78600B
:104590003960294B1B68FB60284B1B6804331846A5
:1045A000FFF794F90346002B0BD1244B1B68DB6A01
:1045B000012202FA03F3DA43214B1B681340204A1D
:1045C00013607B68B3F1FF3F0AD13B68002B07D033
:1045D0001A4B1B68043319461A48FFF71CF926E0EA
:1045E000FA687B681344BB60144B1B68BA685A6056
:1045F000BA68FB689A4209D2134B1A680F4B1B68C2
:10460000043319461046FFF729F910E00F4B1A68DA
:104610000A4B1B68043319461046FFF71FF90C4B71
:104620001B68BA689A4202D2094ABB68136000BF8D
:104630001037BD4680BD00BFF0020020EC01002015
:10464000F4020020D8020020A8020020A4020020CA
:104650000C03002080B485B000AFF860B9607A60C8
:10466000FB68043BFB60FB684FF080721A60FB68DC
:10467000043BFB60BB6823F00102FB681A60FB6827
:10468000043BFB60084AFB681A60FB68143BFB6054
:104690007A68FB681A60FB68203BFB60FB68184681
:1046A0001437BD4680BC7047AD46000880B584B065
:1046B00000AF00237B60154B1B68B3F1FF3F11D0A7
:1046C0004FF0A00383F31188BFF36F8FBFF34F8FB9
:1046D000FB6000BF4FF47A7305220D490D48FEF7C9
:1046E0009BFEF7E74FF0A00383F31188BFF36F8FB2
:1046F000BFF34F8FBB6000BF00BF7B68002BFCD0B7
:1047000000BF00BF1037BD4680BD00BF380000208D
:1047100028510008480100200000000000000000AF
:10472000074B19680868B0E8F00F80F30988BFF3F9
:104730006F8F4FF0000080F311884EF00D0E704720
:10474000EC01002000BF00BF06480068006880F34D
:10475000088862B661B6BFF34F8FBFF36F8F00DF7B
:1047600000BF000008ED00E000BF00BF80B584B0CE
:1047700000AF3B4BFB60FB681B78DBB2BB60FB68A8
:10478000FF221A70FB681B78DBB2FB71FB79DBB28E
:1047900023F05F03DAB2334B1A70334B07221A60EF
:1047A00009E0314B1B68013B2F4A1360FB79DBB2F8
:1047B0005B00DBB2FB71FB79DBB203F08003802B83
:1047C000EFD04FF47A73022228492948FEF724FEDD
:1047D0004FF47A73022227492548FEF71DFE4FF455
:1047E0007A73022224492248FEF716FE4FF47A73A8
:1047F000032222491E48FEF70FFE1B4B1B681B02BB
:10480000194A1360184B1B6803F4E063164A1360DF
:10481000BB68DAB2FB681A70194B1B68184A43F47C
:1048200060031360164B1B68154A43F06043136026
:1048300000F0DCF8134B00221A604FF47A73032265
:104840000E490B48FEF7E8FDFFF77EFFFFF7CEFBB2
:10485000FFF72CFF002318461037BD4680BD00BF70
:1048600000E400E0180300201C0300203051000881
:104870004801002034510008385100083C5100081C
:1048800020ED00E03800002080B582B000AF4FF08E
:10489000A00383F31188BFF36F8FBFF34F8F7B604B
:1048A00000BF124B1B680133104A13600F4B1B688B
:1048B000012B16D10E4B1B68DBB2002B11D04FF031
:1048C000A00383F31188BFF36F8FBFF34F8F3B605B
:1048D00000BF4FF47A73052206490748FEF79CFD96
:1048E000F7E700BF0837BD4680BD00BF3800002095
:1048F00004ED00E0285100084801002080B582B096
:1049000000AF144B1B68002B11D14FF0A00383F3B1
:104910001188BFF36F8FBFF34F8F7B6000BF4FF4E1
:104920007A7305220C490D48FEF776FDF7E7094B2F
:104930001B68013B074A1360064B1B68002B05D11F
:1049400000233B603B6883F3118800BF00BF08373A
:10495000BD4680BD380000202851000848010020D5
:10496000EFF30980BFF36F8F0D4B1A6820E9F00F4A
:1049700010602DE908404FF0A00080F31188FFF788
:1049800035FB4FF0000080F31188BDE8084019683E
:104990000868B0E8F00F80F30988BFF36F8F7047A5
:1049A000EC01002000BF00BF80B582B000AF4FF027
:1049B000A00383F31188BFF36F8FBFF34F8F7B602A
:1049C00000BFFFF75DFA0346002B03D0064B4FF004
:1049D00080521A6000233B603B6883F3118800BF5C
:1049E00000BF0837BD4680BD04ED00E080B400AFD5
:1049F0000A4B00221A600A4B00221A60094B1B68FE
:104A0000094AA2FB03239B09084A013B1360034B9D
:104A100007221A6000BFBD4680BC704710E000E06E
:104A200018E000E02C000020D34D621014E000E0FC
:104A300080B584B000AFEFF30583FB60FB680F2BFC
:104A40001BD91D4AFB6813441B78FB721B4B1B7858
:104A5000FA7A9A4211D24FF0A00383F31188BFF380
:104A60006F8FBFF34F8F7B6000BF4FF47A730522C7
:104A700013491448FEF7D0FCF7E7134B1B6803F407
:104A8000E062124B1B689A4211D94FF0A00383F3E6
:104A90001188BFF36F8FBFF34F8F3B6000BF4FF4A0
:104AA0007A73052206490748FEF7B6FCF7E700BF10
:104AB0001037BD4680BD00BFF0E300E018030020C2
:104AC00028510008480100200CED00E01C030020E4
:104AD00080B58AB000AF78600023FB61FFF71AF958
:104AE0006F4B1B68002B01D100F05EF96D4B1A680B
:104AF0007B681340002B40F0B5807B68002B34D0DE
:104B000008227B6813447A689A422ED208227B6876
:104B100013447B607B6803F00703002B28D07B687D
:104B200023F0070308337A689A421BD27B6823F08C
:104B3000070308337B607B6803F00703002B17D063
:104B40004FF0A00383F31188BFF36F8FBFF34F8F34
:104B50007B6100BF4FF47A73052253495348FEF737
:104B60005BFCF7E700237B6002E000237B6000E052
:104B700000BF7B68002B75D04D4B1B687A689A424A
:104B800070D84C4B3B624B4B1B687B6204E07B6AEA
:104B90003B627B6A1B687B627B6A5B687A689A42CD
:104BA00003D97B6A1B68002BF1D13D4B1B687A6AE5
:104BB0009A4257D03B6A1B6808221344FB617B6A08
:104BC0001A683B6A1A607B6A5A687B68D21A0823A3
:104BD0005B009A4226D97A6A7B681344BB61BB6941
:104BE00003F00703002B11D04FF0A00383F31188CB
:104BF000BFF36F8FBFF34F8F3B6100BF4FF47A73EA
:104C0000052229492948FEF707FCF7E77B6A5A681D
:104C10007B68D21ABB695A607B6A7A685A60B86945
:104C200000F024F9224B1A687B6A5B68D31A204A89
:104C300013601F4B1A68204B1B689A4203D21C4B0F
:104C40001B681D4A13607B6A5A68164B1B681A431F
:104C50007B6A5A607B6A00221A60184B1B6801331A
:104C6000164A1360FFF764F8FB6903F00703002B93
:104C700011D04FF0A00383F31188BFF36F8FBFF300
:104C80004F8FFB6000BF4FF47A7305220649074837
:104C9000FEF7C2FBF7E7FB6918462837BD4680BD23
:104CA000280F00203C0F0020405100084801002040
:104CB0002C0F0020200F0020300F0020340F002088
:104CC00080B586B000AF78607B687B617B68002B25
:104CD0005BD008235B427A6913447B617B693B614B
:104CE0003B695A682B4B1B681340002B11D14FF0C6
:104CF000A00383F31188BFF36F8FBFF34F8FFB6067
:104D000000BF4FF47A73052223492448FEF784FB41
:104D1000F7E73B691B68002B11D04FF0A00383F32A
:104D20001188BFF36F8FBFF34F8FBB6000BF4FF48D
:104D30007A73052218491948FEF76EFBF7E73B69BD
:104D40005A68144B1B681340002B1ED03B691B682C
:104D5000002B1AD13B695A680E4B1B68DB431A4083
:104D60003B695A60FEF7D6FF3B695A680C4B1B68DB
:104D700013440B4A1360386900F078F8094B1B683C
:104D80000133084A1360FEF7D3FF00BF1837BD4652
:104D900080BD00BF3C0F00204051000848010020AA
:104DA0002C0F0020380F002080B485B000AF4FF4E6
:104DB0004063BB60274BFB60FB6803F00703002BDD
:104DC0000CD0FB680733FB60FB6823F00703FB6034
:104DD000BA68FB68D31A1F4A1344BB60FB687B6048
:104DE0001D4A7B6813601C4B00225A607B68BA68BE
:104DF0001344FB600822FB689B1AFB60FB6823F0EE
:104E00000703FB60FB68154A1360144B1B68002204
:104E10005A60124B1B6800221A607B683B603B683B
:104E2000FA68D21A3B685A600C4B1A683B681A60E1
:104E30003B685B680A4A13603B685B68094A136019
:104E4000094B4FF000421A6000BF1437BD4680BCCA
:104E5000704700BF20030020200F0020280F0020F3
:104E6000300F00202C0F00203C0F002080B485B0B4
:104E700000AF7860274BFB6002E0FB681B68FB60BB
:104E8000FB681B687A689A42F7D8FB68BB60FB68CE
:104E90005B68BA6813447A689A4208D1FB685A681A
:104EA0007B685B681A44FB685A60FB687B607B68C0
:104EB000BB607B685B68BA681A44FB681B689A42EF
:104EC00018D1FB681A68144B1B689A420DD07B6896
:104ED0005A68FB681B685B681A447B685A60FB6809
:104EE0001B681A687B681A6008E00B4B1A687B68BD
:104EF0001A6003E0FB681A687B681A60FA687B68CE
:104F00009A4202D0FB687A681A6000BF1437BD4627
:104F100080BC7047200F0020280F00200346024469
:104F2000934200D1704703F8011BF9E72D4B70B590
:104F30001B680446834253D0C3691BB3DB6863B16B
:104F40000025E369DB685959B1B90435802DF8D1E2
:104F5000E3692046D96800F06DF8E369196811B17A
:104F6000204600F067F8E3699D685DB12946204658
:104F70002D6800F05FF8F8E70E68204600F05AF858
:104F80003146E1E7616911B1204600F053F8E1696B
:104F900011B1204600F04EF8216B11B1204600F00F
:104FA00049F8616B11B1204600F044F8A16B11B1D2
:104FB000204600F03FF8A16C11B1204600F03AF80D
:104FC000616C11B1204600F035F8E16A11B120465C
:104FD00000F030F8236A1BB12046BDE87040184746
:104FE00070BD00BF3C00002070B500260C4D0D4C7C
:104FF000641BA410A64209D100F070F800260A4DE7
:105000000A4C641BA410A64205D170BD55F8043BA0
:1050100098470136EEE755F8043B98470136F2E72A
:105020007851000878510008785100087C51000838
:105030007047704738B50546002940D051F8043C08
:105040000C1F002BB8BFE41800F03CF81C4A136892
:1050500033B9636014602846BDE8384000F038B8C2
:10506000A34208D9206821188B4201BF19685B68E8
:1050700009182160EDE71A465B680BB1A342FAD923
:1050800011685018A0420BD1206801445018834287
:105090001160E0D118685B68084410605360DAE77B
:1050A00002D90C232B60D6E7206821188B4201BF60
:1050B00019685B680918216063605460CBE738BDEC
:1050C0007C1000200148FFF7B3BF00BF781000201C
:1050D0000148FFF7AEBF00BF78100020F8B500BF51
:1050E000F8BC08BC9E467047F8B500BFF8BC08BCC9
:0450F0009E46704721
:1050F4006D6F746F720000006C6364006C636462B3
:105104007574746F6E000000656D657267656E631B
:105114007900000070726F620A00000049444C4537
:105124000000000070726F620A000000370A00007D
:10513400380A0000390A000031300A0070726F62C8
:105144000A00000000000000000000000102030447
:105154000607080900000000010203040203040515
:10516400060708090A0B0C0D0E0F101001020000AF
:045174000600000031
:0451780035010008F5
:04517C001101000815
:105180003030302000000000280E01078F000000A2
:1051900052544F532D50726F6772616D00000000C2
:1051A0004547532D50494C4C4159000000127A009C
:1051B0001000000001000000AAAAAAAA40000020D6
:1051C00000000000400F0020A80F00201010002059
:1051D00000000000000000000000000000000000CF
:1051E00000000000000000000000000000000000BF
:1051F00000000000000000000000000000000000AF
:0C520000000000000000000000000000A2
:0400000508000E6D74
:00000001FF
